{
  "_format": "hh-sol-artifact-1",
  "contractName": "NoobsTender",
  "sourceName": "contracts/NoobsTender.sol",
  "abi": [
    {
      "inputs": [],
      "stateMutability": "nonpayable",
      "type": "constructor"
    },
    {
      "anonymous": false,
      "inputs": [
        {
          "indexed": true,
          "internalType": "address",
          "name": "owner",
          "type": "address"
        },
        {
          "indexed": true,
          "internalType": "address",
          "name": "approved",
          "type": "address"
        },
        {
          "indexed": true,
          "internalType": "uint256",
          "name": "tokenId",
          "type": "uint256"
        }
      ],
      "name": "Approval",
      "type": "event"
    },
    {
      "anonymous": false,
      "inputs": [
        {
          "indexed": true,
          "internalType": "address",
          "name": "owner",
          "type": "address"
        },
        {
          "indexed": true,
          "internalType": "address",
          "name": "operator",
          "type": "address"
        },
        {
          "indexed": false,
          "internalType": "bool",
          "name": "approved",
          "type": "bool"
        }
      ],
      "name": "ApprovalForAll",
      "type": "event"
    },
    {
      "anonymous": false,
      "inputs": [
        {
          "indexed": true,
          "internalType": "address",
          "name": "previousOwner",
          "type": "address"
        },
        {
          "indexed": true,
          "internalType": "address",
          "name": "newOwner",
          "type": "address"
        }
      ],
      "name": "OwnershipTransferred",
      "type": "event"
    },
    {
      "anonymous": false,
      "inputs": [
        {
          "indexed": true,
          "internalType": "address",
          "name": "from",
          "type": "address"
        },
        {
          "indexed": true,
          "internalType": "address",
          "name": "to",
          "type": "address"
        },
        {
          "indexed": true,
          "internalType": "uint256",
          "name": "tokenId",
          "type": "uint256"
        }
      ],
      "name": "Transfer",
      "type": "event"
    },
    {
      "inputs": [],
      "name": "BYTES_DEFAULT_VALUE",
      "outputs": [
        {
          "internalType": "bytes1",
          "name": "",
          "type": "bytes1"
        }
      ],
      "stateMutability": "view",
      "type": "function"
    },
    {
      "inputs": [
        {
          "internalType": "address",
          "name": "to",
          "type": "address"
        },
        {
          "internalType": "uint256",
          "name": "tokenId",
          "type": "uint256"
        }
      ],
      "name": "approve",
      "outputs": [],
      "stateMutability": "nonpayable",
      "type": "function"
    },
    {
      "inputs": [
        {
          "internalType": "address",
          "name": "owner",
          "type": "address"
        }
      ],
      "name": "balanceOf",
      "outputs": [
        {
          "internalType": "uint256",
          "name": "",
          "type": "uint256"
        }
      ],
      "stateMutability": "view",
      "type": "function"
    },
    {
      "inputs": [
        {
          "internalType": "bytes32",
          "name": "",
          "type": "bytes32"
        }
      ],
      "name": "companyNames",
      "outputs": [
        {
          "internalType": "bytes",
          "name": "companyName",
          "type": "bytes"
        },
        {
          "internalType": "bytes",
          "name": "companyDIN",
          "type": "bytes"
        },
        {
          "internalType": "address",
          "name": "owner",
          "type": "address"
        },
        {
          "internalType": "uint256",
          "name": "tokenId",
          "type": "uint256"
        },
        {
          "internalType": "uint256",
          "name": "tenderIdApplied",
          "type": "uint256"
        },
        {
          "internalType": "uint256",
          "name": "priceBid",
          "type": "uint256"
        }
      ],
      "stateMutability": "view",
      "type": "function"
    },
    {
      "inputs": [
        {
          "internalType": "uint256",
          "name": "tokenId",
          "type": "uint256"
        }
      ],
      "name": "getApproved",
      "outputs": [
        {
          "internalType": "address",
          "name": "",
          "type": "address"
        }
      ],
      "stateMutability": "view",
      "type": "function"
    },
    {
      "inputs": [
        {
          "internalType": "bytes",
          "name": "company",
          "type": "bytes"
        },
        {
          "internalType": "bytes",
          "name": "din",
          "type": "bytes"
        }
      ],
      "name": "getCompanyHash",
      "outputs": [
        {
          "internalType": "bytes32",
          "name": "",
          "type": "bytes32"
        }
      ],
      "stateMutability": "pure",
      "type": "function"
    },
    {
      "inputs": [],
      "name": "getTenderDetails",
      "outputs": [
        {
          "internalType": "uint256",
          "name": "",
          "type": "uint256"
        },
        {
          "internalType": "uint256",
          "name": "",
          "type": "uint256"
        },
        {
          "internalType": "uint256",
          "name": "",
          "type": "uint256"
        }
      ],
      "stateMutability": "view",
      "type": "function"
    },
    {
      "inputs": [
        {
          "internalType": "address",
          "name": "owner",
          "type": "address"
        },
        {
          "internalType": "address",
          "name": "operator",
          "type": "address"
        }
      ],
      "name": "isApprovedForAll",
      "outputs": [
        {
          "internalType": "bool",
          "name": "",
          "type": "bool"
        }
      ],
      "stateMutability": "view",
      "type": "function"
    },
    {
      "inputs": [],
      "name": "name",
      "outputs": [
        {
          "internalType": "string",
          "name": "",
          "type": "string"
        }
      ],
      "stateMutability": "view",
      "type": "function"
    },
    {
      "inputs": [],
      "name": "owner",
      "outputs": [
        {
          "internalType": "address",
          "name": "",
          "type": "address"
        }
      ],
      "stateMutability": "view",
      "type": "function"
    },
    {
      "inputs": [
        {
          "internalType": "uint256",
          "name": "tokenId",
          "type": "uint256"
        }
      ],
      "name": "ownerOf",
      "outputs": [
        {
          "internalType": "address",
          "name": "",
          "type": "address"
        }
      ],
      "stateMutability": "view",
      "type": "function"
    },
    {
      "inputs": [
        {
          "internalType": "bytes",
          "name": "company",
          "type": "bytes"
        },
        {
          "internalType": "bytes",
          "name": "din",
          "type": "bytes"
        },
        {
          "internalType": "uint256",
          "name": "bid",
          "type": "uint256"
        },
        {
          "internalType": "address payable",
          "name": "companyOwner",
          "type": "address"
        }
      ],
      "name": "register",
      "outputs": [],
      "stateMutability": "payable",
      "type": "function"
    },
    {
      "inputs": [],
      "name": "renounceOwnership",
      "outputs": [],
      "stateMutability": "nonpayable",
      "type": "function"
    },
    {
      "inputs": [
        {
          "internalType": "address",
          "name": "from",
          "type": "address"
        },
        {
          "internalType": "address",
          "name": "to",
          "type": "address"
        },
        {
          "internalType": "uint256",
          "name": "tokenId",
          "type": "uint256"
        }
      ],
      "name": "safeTransferFrom",
      "outputs": [],
      "stateMutability": "nonpayable",
      "type": "function"
    },
    {
      "inputs": [
        {
          "internalType": "address",
          "name": "from",
          "type": "address"
        },
        {
          "internalType": "address",
          "name": "to",
          "type": "address"
        },
        {
          "internalType": "uint256",
          "name": "tokenId",
          "type": "uint256"
        },
        {
          "internalType": "bytes",
          "name": "data",
          "type": "bytes"
        }
      ],
      "name": "safeTransferFrom",
      "outputs": [],
      "stateMutability": "nonpayable",
      "type": "function"
    },
    {
      "inputs": [
        {
          "internalType": "address",
          "name": "operator",
          "type": "address"
        },
        {
          "internalType": "bool",
          "name": "approved",
          "type": "bool"
        }
      ],
      "name": "setApprovalForAll",
      "outputs": [],
      "stateMutability": "nonpayable",
      "type": "function"
    },
    {
      "inputs": [
        {
          "internalType": "bytes",
          "name": "name",
          "type": "bytes"
        },
        {
          "internalType": "uint256",
          "name": "id",
          "type": "uint256"
        },
        {
          "internalType": "uint256",
          "name": "time",
          "type": "uint256"
        }
      ],
      "name": "startTendor",
      "outputs": [],
      "stateMutability": "nonpayable",
      "type": "function"
    },
    {
      "inputs": [
        {
          "internalType": "bytes4",
          "name": "interfaceId",
          "type": "bytes4"
        }
      ],
      "name": "supportsInterface",
      "outputs": [
        {
          "internalType": "bool",
          "name": "",
          "type": "bool"
        }
      ],
      "stateMutability": "view",
      "type": "function"
    },
    {
      "inputs": [],
      "name": "symbol",
      "outputs": [
        {
          "internalType": "string",
          "name": "",
          "type": "string"
        }
      ],
      "stateMutability": "view",
      "type": "function"
    },
    {
      "inputs": [],
      "name": "tenderId",
      "outputs": [
        {
          "internalType": "uint256",
          "name": "",
          "type": "uint256"
        }
      ],
      "stateMutability": "view",
      "type": "function"
    },
    {
      "inputs": [],
      "name": "tenderName",
      "outputs": [
        {
          "internalType": "bytes",
          "name": "",
          "type": "bytes"
        }
      ],
      "stateMutability": "view",
      "type": "function"
    },
    {
      "inputs": [],
      "name": "tenderStart",
      "outputs": [
        {
          "internalType": "uint256",
          "name": "",
          "type": "uint256"
        }
      ],
      "stateMutability": "view",
      "type": "function"
    },
    {
      "inputs": [],
      "name": "tenderTime",
      "outputs": [
        {
          "internalType": "uint256",
          "name": "",
          "type": "uint256"
        }
      ],
      "stateMutability": "view",
      "type": "function"
    },
    {
      "inputs": [
        {
          "internalType": "uint256",
          "name": "",
          "type": "uint256"
        }
      ],
      "name": "tokenToHash",
      "outputs": [
        {
          "internalType": "bytes32",
          "name": "",
          "type": "bytes32"
        }
      ],
      "stateMutability": "view",
      "type": "function"
    },
    {
      "inputs": [
        {
          "internalType": "uint256",
          "name": "tokenId2",
          "type": "uint256"
        }
      ],
      "name": "tokenURI",
      "outputs": [
        {
          "internalType": "string",
          "name": "",
          "type": "string"
        }
      ],
      "stateMutability": "view",
      "type": "function"
    },
    {
      "inputs": [
        {
          "internalType": "address",
          "name": "from",
          "type": "address"
        },
        {
          "internalType": "address",
          "name": "to",
          "type": "address"
        },
        {
          "internalType": "uint256",
          "name": "tokenId",
          "type": "uint256"
        }
      ],
      "name": "transferFrom",
      "outputs": [],
      "stateMutability": "nonpayable",
      "type": "function"
    },
    {
      "inputs": [
        {
          "internalType": "address",
          "name": "newOwner",
          "type": "address"
        }
      ],
      "name": "transferOwnership",
      "outputs": [],
      "stateMutability": "nonpayable",
      "type": "function"
    },
    {
      "inputs": [],
      "name": "winner",
      "outputs": [
        {
          "internalType": "uint256",
          "name": "",
          "type": "uint256"
        }
      ],
      "stateMutability": "view",
      "type": "function"
    },
    {
      "inputs": [
        {
          "internalType": "uint256",
          "name": "tokenIdofDomain",
          "type": "uint256"
        }
      ],
      "name": "withdraw",
      "outputs": [],
      "stateMutability": "nonpayable",
      "type": "function"
    }
  ],
  "bytecode": "0x60806040526000600c553480156200001657600080fd5b506040518060400160405280600b81526020017f4e6f6f627354656e6465720000000000000000000000000000000000000000008152506040518060400160405280600581526020017f4e6f6f6273000000000000000000000000000000000000000000000000000000815250620000a362000097620000cf60201b60201c565b620000d760201b60201c565b8160019081620000b4919062000415565b508060029081620000c6919062000415565b505050620004fc565b600033905090565b60008060009054906101000a900473ffffffffffffffffffffffffffffffffffffffff169050816000806101000a81548173ffffffffffffffffffffffffffffffffffffffff021916908373ffffffffffffffffffffffffffffffffffffffff1602179055508173ffffffffffffffffffffffffffffffffffffffff168173ffffffffffffffffffffffffffffffffffffffff167f8be0079c531659141344cd1fd0a4f28419497f9722a3daafe3b4186f6b6457e060405160405180910390a35050565b600081519050919050565b7f4e487b7100000000000000000000000000000000000000000000000000000000600052604160045260246000fd5b7f4e487b7100000000000000000000000000000000000000000000000000000000600052602260045260246000fd5b600060028204905060018216806200021d57607f821691505b602082108103620002335762000232620001d5565b5b50919050565b60008190508160005260206000209050919050565b60006020601f8301049050919050565b600082821b905092915050565b6000600883026200029d7fffffffffffffffffffffffffffffffffffffffffffffffffffffffffffffffff826200025e565b620002a986836200025e565b95508019841693508086168417925050509392505050565b6000819050919050565b6000819050919050565b6000620002f6620002f0620002ea84620002c1565b620002cb565b620002c1565b9050919050565b6000819050919050565b6200031283620002d5565b6200032a6200032182620002fd565b8484546200026b565b825550505050565b600090565b6200034162000332565b6200034e81848462000307565b505050565b5b8181101562000376576200036a60008262000337565b60018101905062000354565b5050565b601f821115620003c5576200038f8162000239565b6200039a846200024e565b81016020851015620003aa578190505b620003c2620003b9856200024e565b83018262000353565b50505b505050565b600082821c905092915050565b6000620003ea60001984600802620003ca565b1980831691505092915050565b6000620004058383620003d7565b9150826002028217905092915050565b62000420826200019b565b67ffffffffffffffff8111156200043c576200043b620001a6565b5b62000448825462000204565b620004558282856200037a565b600060209050601f8311600181146200048d576000841562000478578287015190505b620004848582620003f7565b865550620004f4565b601f1984166200049d8662000239565b60005b82811015620004c757848901518255600182019150602085019450602081019050620004a0565b86831015620004e75784890151620004e3601f891682620003d7565b8355505b6001600288020188555050505b505050505050565b6144ce806200050c6000396000f3fe6080604052600436106101c25760003560e01c80638a19ce88116100f7578063c87b56dd11610095578063e985e9c511610064578063e985e9c514610647578063f2fde38b14610684578063f752ba4d146106ad578063f7bbc787146106ef576101c2565b8063c87b56dd14610589578063d8d57733146105c6578063dfbf53ae146105f1578063e959c7b91461061c576101c2565b806395d89b41116100d157806395d89b41146104e1578063a22cb4651461050c578063b88d4fde14610535578063bace8bcc1461055e576101c2565b80638a19ce881461045d5780638c2621c4146104795780638da5cb5b146104b6576101c2565b806336e18778116101645780634c9fce481161013e5780634c9fce481461038f5780636352211e146103cc57806370a0823114610409578063715018a614610446576101c2565b806336e187781461031057806342842e0e1461033b57806342b53c1214610364576101c2565b8063095ea7b3116101a0578063095ea7b31461026c57806323b872dd146102955780632e1a7d4d146102be57806330388bc0146102e7576101c2565b806301ffc9a7146101c757806306fdde0314610204578063081812fc1461022f575b600080fd5b3480156101d357600080fd5b506101ee60048036038101906101e99190612d1b565b61071c565b6040516101fb9190612d63565b60405180910390f35b34801561021057600080fd5b506102196107fe565b6040516102269190612e0e565b60405180910390f35b34801561023b57600080fd5b5061025660048036038101906102519190612e66565b610890565b6040516102639190612ed4565b60405180910390f35b34801561027857600080fd5b50610293600480360381019061028e9190612f1b565b6108d6565b005b3480156102a157600080fd5b506102bc60048036038101906102b79190612f5b565b6109ed565b005b3480156102ca57600080fd5b506102e560048036038101906102e09190612e66565b610c4c565b005b3480156102f357600080fd5b5061030e600480360381019061030991906130e3565b610c60565b005b34801561031c57600080fd5b50610325610c9a565b6040516103329190613161565b60405180910390f35b34801561034757600080fd5b50610362600480360381019061035d9190612f5b565b610ca0565b005b34801561037057600080fd5b50610379610f0f565b6040516103869190613161565b60405180910390f35b34801561039b57600080fd5b506103b660048036038101906103b19190612e66565b610f15565b6040516103c39190613195565b60405180910390f35b3480156103d857600080fd5b506103f360048036038101906103ee9190612e66565b610f2d565b6040516104009190612ed4565b60405180910390f35b34801561041557600080fd5b50610430600480360381019061042b91906131b0565b610fb3565b60405161043d9190613161565b60405180910390f35b34801561045257600080fd5b5061045b61106a565b005b6104776004803603810190610472919061321b565b61107e565b005b34801561048557600080fd5b506104a0600480360381019061049b91906132ba565b6112ad565b6040516104ad9190613195565b60405180910390f35b3480156104c257600080fd5b506104cb6112e0565b6040516104d89190612ed4565b60405180910390f35b3480156104ed57600080fd5b506104f6611309565b6040516105039190612e0e565b60405180910390f35b34801561051857600080fd5b50610533600480360381019061052e919061335e565b61139b565b005b34801561054157600080fd5b5061055c6004803603810190610557919061339e565b6113b1565b005b34801561056a57600080fd5b50610573611612565b6040516105809190613161565b60405180910390f35b34801561059557600080fd5b506105b060048036038101906105ab9190612e66565b611618565b6040516105bd9190612e0e565b60405180910390f35b3480156105d257600080fd5b506105db61162a565b6040516105e8919061345c565b60405180910390f35b3480156105fd57600080fd5b50610606611632565b6040516106139190613161565b60405180910390f35b34801561062857600080fd5b50610631611638565b60405161063e91906134cc565b60405180910390f35b34801561065357600080fd5b5061066e600480360381019061066991906134ee565b6116c6565b60405161067b9190612d63565b60405180910390f35b34801561069057600080fd5b506106ab60048036038101906106a691906131b0565b61175a565b005b3480156106b957600080fd5b506106d460048036038101906106cf919061355a565b6117dd565b6040516106e696959493929190613587565b60405180910390f35b3480156106fb57600080fd5b50610704611949565b604051610713939291906135f6565b60405180910390f35b60007f80ac58cd000000000000000000000000000000000000000000000000000000007bffffffffffffffffffffffffffffffffffffffffffffffffffffffff1916827bffffffffffffffffffffffffffffffffffffffffffffffffffffffff191614806107e757507f5b5e139f000000000000000000000000000000000000000000000000000000007bffffffffffffffffffffffffffffffffffffffffffffffffffffffff1916827bffffffffffffffffffffffffffffffffffffffffffffffffffffffff1916145b806107f757506107f682611969565b5b9050919050565b60606001805461080d9061365c565b80601f01602080910402602001604051908101604052809291908181526020018280546108399061365c565b80156108865780601f1061085b57610100808354040283529160200191610886565b820191906000526020600020905b81548152906001019060200180831161086957829003601f168201915b5050505050905090565b600061089b826119d3565b6005600083815260200190815260200160002060009054906101000a900473ffffffffffffffffffffffffffffffffffffffff169050919050565b60006108e182610f2d565b90508073ffffffffffffffffffffffffffffffffffffffff168373ffffffffffffffffffffffffffffffffffffffff1603610951576040517f08c379a0000000000000000000000000000000000000000000000000000000008152600401610948906136ff565b60405180910390fd5b8073ffffffffffffffffffffffffffffffffffffffff16610970611a1e565b73ffffffffffffffffffffffffffffffffffffffff16148061099f575061099e81610999611a1e565b6116c6565b5b6109de576040517f08c379a00000000000000000000000000000000000000000000000000000000081526004016109d590613791565b60405180910390fd5b6109e88383611a26565b505050565b600073ffffffffffffffffffffffffffffffffffffffff168273ffffffffffffffffffffffffffffffffffffffff1603610a2657600080fd5b6000610b94600d6000600e60008681526020019081526020016000205481526020019081526020016000206000018054610a5f9061365c565b80601f0160208091040260200160405190810160405280929190818152602001828054610a8b9061365c565b8015610ad85780601f10610aad57610100808354040283529160200191610ad8565b820191906000526020600020905b815481529060010190602001808311610abb57829003601f168201915b5050505050600d6000600e60008781526020019081526020016000205481526020019081526020016000206001018054610b119061365c565b80601f0160208091040260200160405190810160405280929190818152602001828054610b3d9061365c565b8015610b8a5780601f10610b5f57610100808354040283529160200191610b8a565b820191906000526020600020905b815481529060010190602001808311610b6d57829003601f168201915b50505050506112ad565b905082600d600083815260200190815260200160002060020160006101000a81548173ffffffffffffffffffffffffffffffffffffffff021916908373ffffffffffffffffffffffffffffffffffffffff160217905550610bfc610bf6611a1e565b83611adf565b610c3b576040517f08c379a0000000000000000000000000000000000000000000000000000000008152600401610c3290613823565b60405180910390fd5b610c46848484611b74565b50505050565b610c54611e6d565b610c5d81611eeb565b50565b610c68611e6d565b8260089081610c7791906139ef565b508160098190555042600a8190555080600b819055506000600c81905550505050565b60095481565b600073ffffffffffffffffffffffffffffffffffffffff168273ffffffffffffffffffffffffffffffffffffffff1603610cd957600080fd5b6000610e47600d6000600e60008681526020019081526020016000205481526020019081526020016000206000018054610d129061365c565b80601f0160208091040260200160405190810160405280929190818152602001828054610d3e9061365c565b8015610d8b5780601f10610d6057610100808354040283529160200191610d8b565b820191906000526020600020905b815481529060010190602001808311610d6e57829003601f168201915b5050505050600d6000600e60008781526020019081526020016000205481526020019081526020016000206001018054610dc49061365c565b80601f0160208091040260200160405190810160405280929190818152602001828054610df09061365c565b8015610e3d5780601f10610e1257610100808354040283529160200191610e3d565b820191906000526020600020905b815481529060010190602001808311610e2057829003601f168201915b50505050506112ad565b905082600d600083815260200190815260200160002060020160006101000a81548173ffffffffffffffffffffffffffffffffffffffff021916908373ffffffffffffffffffffffffffffffffffffffff160217905550610eaf610ea9611a1e565b83611adf565b610eee576040517f08c379a0000000000000000000000000000000000000000000000000000000008152600401610ee590613823565b60405180910390fd5b610f09848484604051806020016040528060008152506113b1565b50505050565b600a5481565b600e6020528060005260406000206000915090505481565b600080610f3983611ef7565b9050600073ffffffffffffffffffffffffffffffffffffffff168173ffffffffffffffffffffffffffffffffffffffff1603610faa576040517f08c379a0000000000000000000000000000000000000000000000000000000008152600401610fa190613b0d565b60405180910390fd5b80915050919050565b60008073ffffffffffffffffffffffffffffffffffffffff168273ffffffffffffffffffffffffffffffffffffffff1603611023576040517f08c379a000000000000000000000000000000000000000000000000000000000815260040161101a90613b9f565b60405180910390fd5b600460008373ffffffffffffffffffffffffffffffffffffffff1673ffffffffffffffffffffffffffffffffffffffff168152602001908152602001600020549050919050565b611072611e6d565b61107c6000611f34565b565b611086611e6d565b4262015180600b546110989190613bee565b600a546110a59190613c30565b116110e5576040517f08c379a00000000000000000000000000000000000000000000000000000000081526004016110dc90613cb0565b60405180910390fd5b60006110f185856112ad565b905060006001611101600f611ff8565b61110b9190613c30565b9050611117600f612006565b611149836111248361201c565b6040516020016111349190613d7e565b604051602081830303815290604052836120ea565b81600e60008381526020019081526020016000208190555060006040518060c001604052808881526020018781526020018573ffffffffffffffffffffffffffffffffffffffff168152602001838152602001600954815260200186815250905080600d600085815260200190815260200160002060008201518160000190816111d391906139ef565b5060208201518160010190816111e991906139ef565b5060408201518160020160006101000a81548173ffffffffffffffffffffffffffffffffffffffff021916908373ffffffffffffffffffffffffffffffffffffffff160217905550606082015181600301556080820151816004015560a082015181600501559050506000600c54036112685781600c819055506112a4565b84600d6000600e6000600c5481526020019081526020016000205481526020019081526020016000206005015411156112a35781600c819055505b5b50505050505050565b600082826040516020016112c2929190613ddc565b60405160208183030381529060405280519060200120905092915050565b60008060009054906101000a900473ffffffffffffffffffffffffffffffffffffffff16905090565b6060600280546113189061365c565b80601f01602080910402602001604051908101604052809291908181526020018280546113449061365c565b80156113915780601f1061136657610100808354040283529160200191611391565b820191906000526020600020905b81548152906001019060200180831161137457829003601f168201915b5050505050905090565b6113ad6113a6611a1e565b838361210b565b5050565b600073ffffffffffffffffffffffffffffffffffffffff168373ffffffffffffffffffffffffffffffffffffffff16036113ea57600080fd5b6000611558600d6000600e600087815260200190815260200160002054815260200190815260200160002060000180546114239061365c565b80601f016020809104026020016040519081016040528092919081815260200182805461144f9061365c565b801561149c5780601f106114715761010080835404028352916020019161149c565b820191906000526020600020905b81548152906001019060200180831161147f57829003601f168201915b5050505050600d6000600e600088815260200190815260200160002054815260200190815260200160002060010180546114d59061365c565b80601f01602080910402602001604051908101604052809291908181526020018280546115019061365c565b801561154e5780601f106115235761010080835404028352916020019161154e565b820191906000526020600020905b81548152906001019060200180831161153157829003601f168201915b50505050506112ad565b905083600d600083815260200190815260200160002060020160006101000a81548173ffffffffffffffffffffffffffffffffffffffff021916908373ffffffffffffffffffffffffffffffffffffffff1602179055506115c06115ba611a1e565b84611adf565b6115ff576040517f08c379a00000000000000000000000000000000000000000000000000000000081526004016115f690613823565b60405180910390fd5b61160b85858585612277565b5050505050565b600b5481565b6060611623826122d3565b9050919050565b600060f81b81565b600c5481565b600880546116459061365c565b80601f01602080910402602001604051908101604052809291908181526020018280546116719061365c565b80156116be5780601f10611693576101008083540402835291602001916116be565b820191906000526020600020905b8154815290600101906020018083116116a157829003601f168201915b505050505081565b6000600660008473ffffffffffffffffffffffffffffffffffffffff1673ffffffffffffffffffffffffffffffffffffffff16815260200190815260200160002060008373ffffffffffffffffffffffffffffffffffffffff1673ffffffffffffffffffffffffffffffffffffffff16815260200190815260200160002060009054906101000a900460ff16905092915050565b611762611e6d565b600073ffffffffffffffffffffffffffffffffffffffff168173ffffffffffffffffffffffffffffffffffffffff16036117d1576040517f08c379a00000000000000000000000000000000000000000000000000000000081526004016117c890613e72565b60405180910390fd5b6117da81611f34565b50565b600d6020528060005260406000206000915090508060000180546118009061365c565b80601f016020809104026020016040519081016040528092919081815260200182805461182c9061365c565b80156118795780601f1061184e57610100808354040283529160200191611879565b820191906000526020600020905b81548152906001019060200180831161185c57829003601f168201915b50505050509080600101805461188e9061365c565b80601f01602080910402602001604051908101604052809291908181526020018280546118ba9061365c565b80156119075780601f106118dc57610100808354040283529160200191611907565b820191906000526020600020905b8154815290600101906020018083116118ea57829003601f168201915b5050505050908060020160009054906101000a900473ffffffffffffffffffffffffffffffffffffffff16908060030154908060040154908060050154905086565b6000806000600954600c5461195e600f611ff8565b925092509250909192565b60007f01ffc9a7000000000000000000000000000000000000000000000000000000007bffffffffffffffffffffffffffffffffffffffffffffffffffffffff1916827bffffffffffffffffffffffffffffffffffffffffffffffffffffffff1916149050919050565b6119dc816123e5565b611a1b576040517f08c379a0000000000000000000000000000000000000000000000000000000008152600401611a1290613b0d565b60405180910390fd5b50565b600033905090565b816005600083815260200190815260200160002060006101000a81548173ffffffffffffffffffffffffffffffffffffffff021916908373ffffffffffffffffffffffffffffffffffffffff160217905550808273ffffffffffffffffffffffffffffffffffffffff16611a9983610f2d565b73ffffffffffffffffffffffffffffffffffffffff167f8c5be1e5ebec7d5bd14f71427d1e84f3dd0314c0f7b2291e5b200ac8c7c3b92560405160405180910390a45050565b600080611aeb83610f2d565b90508073ffffffffffffffffffffffffffffffffffffffff168473ffffffffffffffffffffffffffffffffffffffff161480611b2d5750611b2c81856116c6565b5b80611b6b57508373ffffffffffffffffffffffffffffffffffffffff16611b5384610890565b73ffffffffffffffffffffffffffffffffffffffff16145b91505092915050565b8273ffffffffffffffffffffffffffffffffffffffff16611b9482610f2d565b73ffffffffffffffffffffffffffffffffffffffff1614611bea576040517f08c379a0000000000000000000000000000000000000000000000000000000008152600401611be190613f04565b60405180910390fd5b600073ffffffffffffffffffffffffffffffffffffffff168273ffffffffffffffffffffffffffffffffffffffff1603611c59576040517f08c379a0000000000000000000000000000000000000000000000000000000008152600401611c5090613f96565b60405180910390fd5b611c668383836001612426565b8273ffffffffffffffffffffffffffffffffffffffff16611c8682610f2d565b73ffffffffffffffffffffffffffffffffffffffff1614611cdc576040517f08c379a0000000000000000000000000000000000000000000000000000000008152600401611cd390613f04565b60405180910390fd5b6005600082815260200190815260200160002060006101000a81549073ffffffffffffffffffffffffffffffffffffffff02191690556001600460008573ffffffffffffffffffffffffffffffffffffffff1673ffffffffffffffffffffffffffffffffffffffff168152602001908152602001600020600082825403925050819055506001600460008473ffffffffffffffffffffffffffffffffffffffff1673ffffffffffffffffffffffffffffffffffffffff16815260200190815260200160002060008282540192505081905550816003600083815260200190815260200160002060006101000a81548173ffffffffffffffffffffffffffffffffffffffff021916908373ffffffffffffffffffffffffffffffffffffffff160217905550808273ffffffffffffffffffffffffffffffffffffffff168473ffffffffffffffffffffffffffffffffffffffff167fddf252ad1be2c89b69c2b068fc378daa952ba7f163c4a11628f55a4df523b3ef60405160405180910390a4611e68838383600161242c565b505050565b611e75611a1e565b73ffffffffffffffffffffffffffffffffffffffff16611e936112e0565b73ffffffffffffffffffffffffffffffffffffffff1614611ee9576040517f08c379a0000000000000000000000000000000000000000000000000000000008152600401611ee090614002565b60405180910390fd5b565b611ef481612432565b50565b60006003600083815260200190815260200160002060009054906101000a900473ffffffffffffffffffffffffffffffffffffffff169050919050565b60008060009054906101000a900473ffffffffffffffffffffffffffffffffffffffff169050816000806101000a81548173ffffffffffffffffffffffffffffffffffffffff021916908373ffffffffffffffffffffffffffffffffffffffff1602179055508173ffffffffffffffffffffffffffffffffffffffff168173ffffffffffffffffffffffffffffffffffffffff167f8be0079c531659141344cd1fd0a4f28419497f9722a3daafe3b4186f6b6457e060405160405180910390a35050565b600081600001549050919050565b6001816000016000828254019250508190555050565b60606000600161202b84612485565b01905060008167ffffffffffffffff81111561204a57612049612fb8565b5b6040519080825280601f01601f19166020018201604052801561207c5781602001600182028036833780820191505090505b509050600082602001820190505b6001156120df578080600190039150507f3031323334353637383961626364656600000000000000000000000000000000600a86061a8153600a85816120d3576120d2614022565b5b0494506000850361208a575b819350505050919050565b6120f2611e6d565b6120fc83826125d8565b61210681836125f6565b505050565b8173ffffffffffffffffffffffffffffffffffffffff168373ffffffffffffffffffffffffffffffffffffffff1603612179576040517f08c379a00000000000000000000000000000000000000000000000000000000081526004016121709061409d565b60405180910390fd5b80600660008573ffffffffffffffffffffffffffffffffffffffff1673ffffffffffffffffffffffffffffffffffffffff16815260200190815260200160002060008473ffffffffffffffffffffffffffffffffffffffff1673ffffffffffffffffffffffffffffffffffffffff16815260200190815260200160002060006101000a81548160ff0219169083151502179055508173ffffffffffffffffffffffffffffffffffffffff168373ffffffffffffffffffffffffffffffffffffffff167f17307eab39ab6107e8899845ad3d59bd9653f200f220920489ca2b5937696c318360405161226a9190612d63565b60405180910390a3505050565b612282848484611b74565b61228e84848484612663565b6122cd576040517f08c379a00000000000000000000000000000000000000000000000000000000081526004016122c49061412f565b60405180910390fd5b50505050565b60606122de826119d3565b60006007600084815260200190815260200160002080546122fe9061365c565b80601f016020809104026020016040519081016040528092919081815260200182805461232a9061365c565b80156123775780601f1061234c57610100808354040283529160200191612377565b820191906000526020600020905b81548152906001019060200180831161235a57829003601f168201915b5050505050905060006123886127ea565b9050600081510361239d5781925050506123e0565b6000825111156123d25780826040516020016123ba92919061414f565b604051602081830303815290604052925050506123e0565b6123db84612801565b925050505b919050565b60008073ffffffffffffffffffffffffffffffffffffffff1661240783611ef7565b73ffffffffffffffffffffffffffffffffffffffff1614159050919050565b50505050565b50505050565b61243b81612869565b600060076000838152602001908152602001600020805461245b9061365c565b905014612482576007600082815260200190815260200160002060006124819190612c52565b5b50565b600080600090507a184f03e93ff9f4daa797ed6e38ed64bf6a1f01000000000000000083106124e3577a184f03e93ff9f4daa797ed6e38ed64bf6a1f01000000000000000083816124d9576124d8614022565b5b0492506040810190505b6d04ee2d6d415b85acef81000000008310612520576d04ee2d6d415b85acef8100000000838161251657612515614022565b5b0492506020810190505b662386f26fc10000831061254f57662386f26fc10000838161254557612544614022565b5b0492506010810190505b6305f5e1008310612578576305f5e100838161256e5761256d614022565b5b0492506008810190505b612710831061259d57612710838161259357612592614022565b5b0492506004810190505b606483106125c057606483816125b6576125b5614022565b5b0492506002810190505b600a83106125cf576001810190505b80915050919050565b6125f28282604051806020016040528060008152506129b7565b5050565b6125ff826123e5565b61263e576040517f08c379a0000000000000000000000000000000000000000000000000000000008152600401612635906141e5565b60405180910390fd5b8060076000848152602001908152602001600020908161265e9190614260565b505050565b60006126848473ffffffffffffffffffffffffffffffffffffffff16612a12565b156127dd578373ffffffffffffffffffffffffffffffffffffffff1663150b7a026126ad611a1e565b8786866040518563ffffffff1660e01b81526004016126cf9493929190614332565b6020604051808303816000875af192505050801561270b57506040513d601f19601f820116820180604052508101906127089190614393565b60015b61278d573d806000811461273b576040519150601f19603f3d011682016040523d82523d6000602084013e612740565b606091505b506000815103612785576040517f08c379a000000000000000000000000000000000000000000000000000000000815260040161277c9061412f565b60405180910390fd5b805181602001fd5b63150b7a0260e01b7bffffffffffffffffffffffffffffffffffffffffffffffffffffffff1916817bffffffffffffffffffffffffffffffffffffffffffffffffffffffff1916149150506127e2565b600190505b949350505050565b606060405180602001604052806000815250905090565b606061280c826119d3565b60006128166127ea565b905060008151116128365760405180602001604052806000815250612861565b806128408461201c565b60405160200161285192919061414f565b6040516020818303038152906040525b915050919050565b600061287482610f2d565b9050612884816000846001612426565b61288d82610f2d565b90506005600083815260200190815260200160002060006101000a81549073ffffffffffffffffffffffffffffffffffffffff02191690556001600460008373ffffffffffffffffffffffffffffffffffffffff1673ffffffffffffffffffffffffffffffffffffffff168152602001908152602001600020600082825403925050819055506003600083815260200190815260200160002060006101000a81549073ffffffffffffffffffffffffffffffffffffffff021916905581600073ffffffffffffffffffffffffffffffffffffffff168273ffffffffffffffffffffffffffffffffffffffff167fddf252ad1be2c89b69c2b068fc378daa952ba7f163c4a11628f55a4df523b3ef60405160405180910390a46129b381600084600161242c565b5050565b6129c18383612a35565b6129ce6000848484612663565b612a0d576040517f08c379a0000000000000000000000000000000000000000000000000000000008152600401612a049061412f565b60405180910390fd5b505050565b6000808273ffffffffffffffffffffffffffffffffffffffff163b119050919050565b600073ffffffffffffffffffffffffffffffffffffffff168273ffffffffffffffffffffffffffffffffffffffff1603612aa4576040517f08c379a0000000000000000000000000000000000000000000000000000000008152600401612a9b9061440c565b60405180910390fd5b612aad816123e5565b15612aed576040517f08c379a0000000000000000000000000000000000000000000000000000000008152600401612ae490614478565b60405180910390fd5b612afb600083836001612426565b612b04816123e5565b15612b44576040517f08c379a0000000000000000000000000000000000000000000000000000000008152600401612b3b90614478565b60405180910390fd5b6001600460008473ffffffffffffffffffffffffffffffffffffffff1673ffffffffffffffffffffffffffffffffffffffff16815260200190815260200160002060008282540192505081905550816003600083815260200190815260200160002060006101000a81548173ffffffffffffffffffffffffffffffffffffffff021916908373ffffffffffffffffffffffffffffffffffffffff160217905550808273ffffffffffffffffffffffffffffffffffffffff16600073ffffffffffffffffffffffffffffffffffffffff167fddf252ad1be2c89b69c2b068fc378daa952ba7f163c4a11628f55a4df523b3ef60405160405180910390a4612c4e60008383600161242c565b5050565b508054612c5e9061365c565b6000825580601f10612c705750612c8f565b601f016020900490600052602060002090810190612c8e9190612c92565b5b50565b5b80821115612cab576000816000905550600101612c93565b5090565b6000604051905090565b600080fd5b600080fd5b60007fffffffff0000000000000000000000000000000000000000000000000000000082169050919050565b612cf881612cc3565b8114612d0357600080fd5b50565b600081359050612d1581612cef565b92915050565b600060208284031215612d3157612d30612cb9565b5b6000612d3f84828501612d06565b91505092915050565b60008115159050919050565b612d5d81612d48565b82525050565b6000602082019050612d786000830184612d54565b92915050565b600081519050919050565b600082825260208201905092915050565b60005b83811015612db8578082015181840152602081019050612d9d565b60008484015250505050565b6000601f19601f8301169050919050565b6000612de082612d7e565b612dea8185612d89565b9350612dfa818560208601612d9a565b612e0381612dc4565b840191505092915050565b60006020820190508181036000830152612e288184612dd5565b905092915050565b6000819050919050565b612e4381612e30565b8114612e4e57600080fd5b50565b600081359050612e6081612e3a565b92915050565b600060208284031215612e7c57612e7b612cb9565b5b6000612e8a84828501612e51565b91505092915050565b600073ffffffffffffffffffffffffffffffffffffffff82169050919050565b6000612ebe82612e93565b9050919050565b612ece81612eb3565b82525050565b6000602082019050612ee96000830184612ec5565b92915050565b612ef881612eb3565b8114612f0357600080fd5b50565b600081359050612f1581612eef565b92915050565b60008060408385031215612f3257612f31612cb9565b5b6000612f4085828601612f06565b9250506020612f5185828601612e51565b9150509250929050565b600080600060608486031215612f7457612f73612cb9565b5b6000612f8286828701612f06565b9350506020612f9386828701612f06565b9250506040612fa486828701612e51565b9150509250925092565b600080fd5b600080fd5b7f4e487b7100000000000000000000000000000000000000000000000000000000600052604160045260246000fd5b612ff082612dc4565b810181811067ffffffffffffffff8211171561300f5761300e612fb8565b5b80604052505050565b6000613022612caf565b905061302e8282612fe7565b919050565b600067ffffffffffffffff82111561304e5761304d612fb8565b5b61305782612dc4565b9050602081019050919050565b82818337600083830152505050565b600061308661308184613033565b613018565b9050828152602081018484840111156130a2576130a1612fb3565b5b6130ad848285613064565b509392505050565b600082601f8301126130ca576130c9612fae565b5b81356130da848260208601613073565b91505092915050565b6000806000606084860312156130fc576130fb612cb9565b5b600084013567ffffffffffffffff81111561311a57613119612cbe565b5b613126868287016130b5565b935050602061313786828701612e51565b925050604061314886828701612e51565b9150509250925092565b61315b81612e30565b82525050565b60006020820190506131766000830184613152565b92915050565b6000819050919050565b61318f8161317c565b82525050565b60006020820190506131aa6000830184613186565b92915050565b6000602082840312156131c6576131c5612cb9565b5b60006131d484828501612f06565b91505092915050565b60006131e882612e93565b9050919050565b6131f8816131dd565b811461320357600080fd5b50565b600081359050613215816131ef565b92915050565b6000806000806080858703121561323557613234612cb9565b5b600085013567ffffffffffffffff81111561325357613252612cbe565b5b61325f878288016130b5565b945050602085013567ffffffffffffffff8111156132805761327f612cbe565b5b61328c878288016130b5565b935050604061329d87828801612e51565b92505060606132ae87828801613206565b91505092959194509250565b600080604083850312156132d1576132d0612cb9565b5b600083013567ffffffffffffffff8111156132ef576132ee612cbe565b5b6132fb858286016130b5565b925050602083013567ffffffffffffffff81111561331c5761331b612cbe565b5b613328858286016130b5565b9150509250929050565b61333b81612d48565b811461334657600080fd5b50565b60008135905061335881613332565b92915050565b6000806040838503121561337557613374612cb9565b5b600061338385828601612f06565b925050602061339485828601613349565b9150509250929050565b600080600080608085870312156133b8576133b7612cb9565b5b60006133c687828801612f06565b94505060206133d787828801612f06565b93505060406133e887828801612e51565b925050606085013567ffffffffffffffff81111561340957613408612cbe565b5b613415878288016130b5565b91505092959194509250565b60007fff0000000000000000000000000000000000000000000000000000000000000082169050919050565b61345681613421565b82525050565b6000602082019050613471600083018461344d565b92915050565b600081519050919050565b600082825260208201905092915050565b600061349e82613477565b6134a88185613482565b93506134b8818560208601612d9a565b6134c181612dc4565b840191505092915050565b600060208201905081810360008301526134e68184613493565b905092915050565b6000806040838503121561350557613504612cb9565b5b600061351385828601612f06565b925050602061352485828601612f06565b9150509250929050565b6135378161317c565b811461354257600080fd5b50565b6000813590506135548161352e565b92915050565b6000602082840312156135705761356f612cb9565b5b600061357e84828501613545565b91505092915050565b600060c08201905081810360008301526135a18189613493565b905081810360208301526135b58188613493565b90506135c46040830187612ec5565b6135d16060830186613152565b6135de6080830185613152565b6135eb60a0830184613152565b979650505050505050565b600060608201905061360b6000830186613152565b6136186020830185613152565b6136256040830184613152565b949350505050565b7f4e487b7100000000000000000000000000000000000000000000000000000000600052602260045260246000fd5b6000600282049050600182168061367457607f821691505b6020821081036136875761368661362d565b5b50919050565b7f4552433732313a20617070726f76616c20746f2063757272656e74206f776e6560008201527f7200000000000000000000000000000000000000000000000000000000000000602082015250565b60006136e9602183612d89565b91506136f48261368d565b604082019050919050565b60006020820190508181036000830152613718816136dc565b9050919050565b7f4552433732313a20617070726f76652063616c6c6572206973206e6f7420746f60008201527f6b656e206f776e6572206f7220617070726f76656420666f7220616c6c000000602082015250565b600061377b603d83612d89565b91506137868261371f565b604082019050919050565b600060208201905081810360008301526137aa8161376e565b9050919050565b7f4552433732313a2063616c6c6572206973206e6f7420746f6b656e206f776e6560008201527f72206f7220617070726f76656400000000000000000000000000000000000000602082015250565b600061380d602d83612d89565b9150613818826137b1565b604082019050919050565b6000602082019050818103600083015261383c81613800565b9050919050565b60008190508160005260206000209050919050565b60006020601f8301049050919050565b600082821b905092915050565b6000600883026138a57fffffffffffffffffffffffffffffffffffffffffffffffffffffffffffffffff82613868565b6138af8683613868565b95508019841693508086168417925050509392505050565b6000819050919050565b60006138ec6138e76138e284612e30565b6138c7565b612e30565b9050919050565b6000819050919050565b613906836138d1565b61391a613912826138f3565b848454613875565b825550505050565b600090565b61392f613922565b61393a8184846138fd565b505050565b5b8181101561395e57613953600082613927565b600181019050613940565b5050565b601f8211156139a35761397481613843565b61397d84613858565b8101602085101561398c578190505b6139a061399885613858565b83018261393f565b50505b505050565b600082821c905092915050565b60006139c6600019846008026139a8565b1980831691505092915050565b60006139df83836139b5565b9150826002028217905092915050565b6139f882613477565b67ffffffffffffffff811115613a1157613a10612fb8565b5b613a1b825461365c565b613a26828285613962565b600060209050601f831160018114613a595760008415613a47578287015190505b613a5185826139d3565b865550613ab9565b601f198416613a6786613843565b60005b82811015613a8f57848901518255600182019150602085019450602081019050613a6a565b86831015613aac5784890151613aa8601f8916826139b5565b8355505b6001600288020188555050505b505050505050565b7f4552433732313a20696e76616c696420746f6b656e2049440000000000000000600082015250565b6000613af7601883612d89565b9150613b0282613ac1565b602082019050919050565b60006020820190508181036000830152613b2681613aea565b9050919050565b7f4552433732313a2061646472657373207a65726f206973206e6f74206120766160008201527f6c6964206f776e65720000000000000000000000000000000000000000000000602082015250565b6000613b89602983612d89565b9150613b9482613b2d565b604082019050919050565b60006020820190508181036000830152613bb881613b7c565b9050919050565b7f4e487b7100000000000000000000000000000000000000000000000000000000600052601160045260246000fd5b6000613bf982612e30565b9150613c0483612e30565b9250828202613c1281612e30565b91508282048414831517613c2957613c28613bbf565b5b5092915050565b6000613c3b82612e30565b9150613c4683612e30565b9250828201905080821115613c5e57613c5d613bbf565b5b92915050565b7f726567697374726174696f6e206973206e6f74206f70656e0000000000000000600082015250565b6000613c9a601883612d89565b9150613ca582613c64565b602082019050919050565b60006020820190508181036000830152613cc981613c8d565b9050919050565b600081905092915050565b7f68747470733a2f2f68747470733a2f2f74656e64657272656c656173652e637960008201527f636c69632e6170702f74656e64657244657461696c732f000000000000000000602082015250565b6000613d37603783613cd0565b9150613d4282613cdb565b603782019050919050565b6000613d5882612d7e565b613d628185613cd0565b9350613d72818560208601612d9a565b80840191505092915050565b6000613d8982613d2a565b9150613d958284613d4d565b915081905092915050565b600081905092915050565b6000613db682613477565b613dc08185613da0565b9350613dd0818560208601612d9a565b80840191505092915050565b6000613de88285613dab565b9150613df48284613dab565b91508190509392505050565b7f4f776e61626c653a206e6577206f776e657220697320746865207a65726f206160008201527f6464726573730000000000000000000000000000000000000000000000000000602082015250565b6000613e5c602683612d89565b9150613e6782613e00565b604082019050919050565b60006020820190508181036000830152613e8b81613e4f565b9050919050565b7f4552433732313a207472616e736665722066726f6d20696e636f72726563742060008201527f6f776e6572000000000000000000000000000000000000000000000000000000602082015250565b6000613eee602583612d89565b9150613ef982613e92565b604082019050919050565b60006020820190508181036000830152613f1d81613ee1565b9050919050565b7f4552433732313a207472616e7366657220746f20746865207a65726f2061646460008201527f7265737300000000000000000000000000000000000000000000000000000000602082015250565b6000613f80602483612d89565b9150613f8b82613f24565b604082019050919050565b60006020820190508181036000830152613faf81613f73565b9050919050565b7f4f776e61626c653a2063616c6c6572206973206e6f7420746865206f776e6572600082015250565b6000613fec602083612d89565b9150613ff782613fb6565b602082019050919050565b6000602082019050818103600083015261401b81613fdf565b9050919050565b7f4e487b7100000000000000000000000000000000000000000000000000000000600052601260045260246000fd5b7f4552433732313a20617070726f766520746f2063616c6c657200000000000000600082015250565b6000614087601983612d89565b915061409282614051565b602082019050919050565b600060208201905081810360008301526140b68161407a565b9050919050565b7f4552433732313a207472616e7366657220746f206e6f6e20455243373231526560008201527f63656976657220696d706c656d656e7465720000000000000000000000000000602082015250565b6000614119603283612d89565b9150614124826140bd565b604082019050919050565b600060208201905081810360008301526141488161410c565b9050919050565b600061415b8285613d4d565b91506141678284613d4d565b91508190509392505050565b7f45524337323155524953746f726167653a2055524920736574206f66206e6f6e60008201527f6578697374656e7420746f6b656e000000000000000000000000000000000000602082015250565b60006141cf602e83612d89565b91506141da82614173565b604082019050919050565b600060208201905081810360008301526141fe816141c2565b9050919050565b60008190508160005260206000209050919050565b601f82111561425b5761422c81614205565b61423584613858565b81016020851015614244578190505b61425861425085613858565b83018261393f565b50505b505050565b61426982612d7e565b67ffffffffffffffff81111561428257614281612fb8565b5b61428c825461365c565b61429782828561421a565b600060209050601f8311600181146142ca57600084156142b8578287015190505b6142c285826139d3565b86555061432a565b601f1984166142d886614205565b60005b82811015614300578489015182556001820191506020850194506020810190506142db565b8683101561431d5784890151614319601f8916826139b5565b8355505b6001600288020188555050505b505050505050565b60006080820190506143476000830187612ec5565b6143546020830186612ec5565b6143616040830185613152565b81810360608301526143738184613493565b905095945050505050565b60008151905061438d81612cef565b92915050565b6000602082840312156143a9576143a8612cb9565b5b60006143b78482850161437e565b91505092915050565b7f4552433732313a206d696e7420746f20746865207a65726f2061646472657373600082015250565b60006143f6602083612d89565b9150614401826143c0565b602082019050919050565b60006020820190508181036000830152614425816143e9565b9050919050565b7f4552433732313a20746f6b656e20616c7265616479206d696e74656400000000600082015250565b6000614462601c83612d89565b915061446d8261442c565b602082019050919050565b6000602082019050818103600083015261449181614455565b905091905056fea264697066735822122017b61f8345e71b4d714a057f3b4dc01a05e768cdd45cead602d17866c466212564736f6c63430008110033",
  "linkReferences": {},
  "deployedLinkReferences": {}
}